{
  "_format": "hh-sol-artifact-1",
  "contractName": "TestDataManager",
  "sourceName": "contracts/TestDataManager.sol",
  "abi": [
    {
      "inputs": [],
      "stateMutability": "nonpayable",
      "type": "constructor"
    },
    {
      "anonymous": false,
      "inputs": [
        {
          "indexed": true,
          "internalType": "uint256",
          "name": "id",
          "type": "uint256"
        },
        {
          "indexed": true,
          "internalType": "address",
          "name": "submitter",
          "type": "address"
        },
        {
          "indexed": false,
          "internalType": "string",
          "name": "testName",
          "type": "string"
        },
        {
          "indexed": false,
          "internalType": "bool",
          "name": "passed",
          "type": "bool"
        }
      ],
      "name": "TestDataAdded",
      "type": "event"
    },
    {
      "inputs": [
        {
          "internalType": "string",
          "name": "_testName",
          "type": "string"
        },
        {
          "internalType": "string",
          "name": "_testType",
          "type": "string"
        },
        {
          "internalType": "bool",
          "name": "_passed",
          "type": "bool"
        },
        {
          "internalType": "string",
          "name": "_data",
          "type": "string"
        }
      ],
      "name": "addTestData",
      "outputs": [],
      "stateMutability": "nonpayable",
      "type": "function"
    },
    {
      "inputs": [
        {
          "internalType": "uint256",
          "name": "_id",
          "type": "uint256"
        }
      ],
      "name": "getTestData",
      "outputs": [
        {
          "internalType": "string",
          "name": "testName",
          "type": "string"
        },
        {
          "internalType": "string",
          "name": "testType",
          "type": "string"
        },
        {
          "internalType": "bool",
          "name": "passed",
          "type": "bool"
        },
        {
          "internalType": "uint256",
          "name": "timestamp",
          "type": "uint256"
        },
        {
          "internalType": "string",
          "name": "data",
          "type": "string"
        },
        {
          "internalType": "address",
          "name": "submitter",
          "type": "address"
        }
      ],
      "stateMutability": "view",
      "type": "function"
    },
    {
      "inputs": [],
      "name": "getTestDataCount",
      "outputs": [
        {
          "internalType": "uint256",
          "name": "",
          "type": "uint256"
        }
      ],
      "stateMutability": "view",
      "type": "function"
    }
  ],
  "bytecode": "0x608060405234801561001057600080fd5b5033600160006101000a81548173ffffffffffffffffffffffffffffffffffffffff021916908373ffffffffffffffffffffffffffffffffffffffff160217905550610cc2806100616000396000f3fe608060405234801561001057600080fd5b50600436106100415760003560e01c8063083db128146100465780634d8fb87a1461006457806399047b8d14610080575b600080fd5b61004e6100b5565b60405161005b91906104dd565b60405180910390f35b61007e6004803603810190610079919061068a565b6100c1565b005b61009a60048036038101906100959190610771565b61024d565b6040516100ac9695949392919061086d565b60405180910390f35b60008080549050905090565b60008080549050905060006040518060c0016040528087815260200186815260200185151581526020014281526020018481526020013373ffffffffffffffffffffffffffffffffffffffff168152509050600081908060018154018082558091505060019003906000526020600020906006020160009091909190915060008201518160000190816101549190610aef565b50602082015181600101908161016a9190610aef565b5060408201518160020160006101000a81548160ff0219169083151502179055506060820151816003015560808201518160040190816101aa9190610aef565b5060a08201518160050160006101000a81548173ffffffffffffffffffffffffffffffffffffffff021916908373ffffffffffffffffffffffffffffffffffffffff16021790555050503373ffffffffffffffffffffffffffffffffffffffff16827f761a946caa43eb3b030dc61c2e46114346633a2f5191deb30218d4b380a21189888760405161023d929190610bc1565b60405180910390a3505050505050565b606080600080606060008080549050871061029d576040517f08c379a000000000000000000000000000000000000000000000000000000000815260040161029490610c3d565b60405180910390fd5b60008088815481106102b2576102b1610c5d565b5b9060005260206000209060060201905080600001816001018260020160009054906101000a900460ff168360030154846004018560050160009054906101000a900473ffffffffffffffffffffffffffffffffffffffff1685805461031690610912565b80601f016020809104026020016040519081016040528092919081815260200182805461034290610912565b801561038f5780601f106103645761010080835404028352916020019161038f565b820191906000526020600020905b81548152906001019060200180831161037257829003601f168201915b505050505095508480546103a290610912565b80601f01602080910402602001604051908101604052809291908181526020018280546103ce90610912565b801561041b5780601f106103f05761010080835404028352916020019161041b565b820191906000526020600020905b8154815290600101906020018083116103fe57829003601f168201915b5050505050945081805461042e90610912565b80601f016020809104026020016040519081016040528092919081815260200182805461045a90610912565b80156104a75780601f1061047c576101008083540402835291602001916104a7565b820191906000526020600020905b81548152906001019060200180831161048a57829003601f168201915b505050505091509650965096509650965096505091939550919395565b6000819050919050565b6104d7816104c4565b82525050565b60006020820190506104f260008301846104ce565b92915050565b6000604051905090565b600080fd5b600080fd5b600080fd5b600080fd5b6000601f19601f8301169050919050565b7f4e487b7100000000000000000000000000000000000000000000000000000000600052604160045260246000fd5b61055f82610516565b810181811067ffffffffffffffff8211171561057e5761057d610527565b5b80604052505050565b60006105916104f8565b905061059d8282610556565b919050565b600067ffffffffffffffff8211156105bd576105bc610527565b5b6105c682610516565b9050602081019050919050565b82818337600083830152505050565b60006105f56105f0846105a2565b610587565b90508281526020810184848401111561061157610610610511565b5b61061c8482856105d3565b509392505050565b600082601f8301126106395761063861050c565b5b81356106498482602086016105e2565b91505092915050565b60008115159050919050565b61066781610652565b811461067257600080fd5b50565b6000813590506106848161065e565b92915050565b600080600080608085870312156106a4576106a3610502565b5b600085013567ffffffffffffffff8111156106c2576106c1610507565b5b6106ce87828801610624565b945050602085013567ffffffffffffffff8111156106ef576106ee610507565b5b6106fb87828801610624565b935050604061070c87828801610675565b925050606085013567ffffffffffffffff81111561072d5761072c610507565b5b61073987828801610624565b91505092959194509250565b61074e816104c4565b811461075957600080fd5b50565b60008135905061076b81610745565b92915050565b60006020828403121561078757610786610502565b5b60006107958482850161075c565b91505092915050565b600081519050919050565b600082825260208201905092915050565b60005b838110156107d85780820151818401526020810190506107bd565b60008484015250505050565b60006107ef8261079e565b6107f981856107a9565b93506108098185602086016107ba565b61081281610516565b840191505092915050565b61082681610652565b82525050565b600073ffffffffffffffffffffffffffffffffffffffff82169050919050565b60006108578261082c565b9050919050565b6108678161084c565b82525050565b600060c082019050818103600083015261088781896107e4565b9050818103602083015261089b81886107e4565b90506108aa604083018761081d565b6108b760608301866104ce565b81810360808301526108c981856107e4565b90506108d860a083018461085e565b979650505050505050565b7f4e487b7100000000000000000000000000000000000000000000000000000000600052602260045260246000fd5b6000600282049050600182168061092a57607f821691505b60208210810361093d5761093c6108e3565b5b50919050565b60008190508160005260206000209050919050565b60006020601f8301049050919050565b600082821b905092915050565b6000600883026109a57fffffffffffffffffffffffffffffffffffffffffffffffffffffffffffffffff82610968565b6109af8683610968565b95508019841693508086168417925050509392505050565b6000819050919050565b60006109ec6109e76109e2846104c4565b6109c7565b6104c4565b9050919050565b6000819050919050565b610a06836109d1565b610a1a610a12826109f3565b848454610975565b825550505050565b600090565b610a2f610a22565b610a3a8184846109fd565b505050565b5b81811015610a5e57610a53600082610a27565b600181019050610a40565b5050565b601f821115610aa357610a7481610943565b610a7d84610958565b81016020851015610a8c578190505b610aa0610a9885610958565b830182610a3f565b50505b505050565b600082821c905092915050565b6000610ac660001984600802610aa8565b1980831691505092915050565b6000610adf8383610ab5565b9150826002028217905092915050565b610af88261079e565b67ffffffffffffffff811115610b1157610b10610527565b5b610b1b8254610912565b610b26828285610a62565b600060209050601f831160018114610b595760008415610b47578287015190505b610b518582610ad3565b865550610bb9565b601f198416610b6786610943565b60005b82811015610b8f57848901518255600182019150602085019450602081019050610b6a565b86831015610bac5784890151610ba8601f891682610ab5565b8355505b6001600288020188555050505b505050505050565b60006040820190508181036000830152610bdb81856107e4565b9050610bea602083018461081d565b9392505050565b7f54657374206461746120646f6573206e6f742065786973740000000000000000600082015250565b6000610c276018836107a9565b9150610c3282610bf1565b602082019050919050565b60006020820190508181036000830152610c5681610c1a565b9050919050565b7f4e487b7100000000000000000000000000000000000000000000000000000000600052603260045260246000fdfea2646970667358221220ed4e0aa4831f3ab5e59703bef440e9ac264c53584837f48f56fb8e2b6f715e6c64736f6c63430008130033",
  "linkReferences": {},
  "deployedLinkReferences": {}
}